S0130000737972696E6765206465742E73726563B3
S11300000C94C1000C94D3000C94D3000C94D30032
S11300100C94D3000C94D3000C94D3000C94D30010
S11300200C94D3000C94D3000C94D3000C94D30000
S11300300C94D3000C94D3000C94D3000C94D300F0
S11300400C94D3000C94D3000C94D3000C94D300E0
S11300500C94D3000C94D3000C94D3000C94D300D0
S11300600C94D3000C94D3000C94D3000C94D300C0
S11300700C94D3000C94D3000C94D3000C94D300B0
S11300800C94D3000C94D3000C94D3000C94D300A0
S11300900C94D3000C94D3000C94D3000C94D30090
S11300A00C94D3000C94D3000C94D3000C94D30080
S11300B00C94D3000C94D3000C94D3000C94D30070
S11300C00C94D3000C94D3000C94D3000C94D30060
S11300D00C94D3000C94D3000C94D3000C94D30050
S11300E00C94D3000C94D3000C94D3000C94D30040
S11300F00C94D3000C94D3000C94D3000C94D30030
S113010007634236B79BD8A71A39685618AEBAABFC
S1130110558C1D3CB7CC5763BD6DEDFD753EF61790
S11301207231BF000000803F08000000BE922449E5
S1130130123EABAAAA2ABECDCCCC4C3E0000008015
S1130140BEABAAAAAA3E00000000BF000000803F88
S11301500000000000084178D3BB4387D1133D1948
S11301600E3CC3BD4282AD2B3E68EC8276BED98F75
S1130170E1A93E4C80EFFFBE01C4FF7F3F000000B9
S1130180000011241FBECFEFCDBFDFE7DEBF20E4A8
S1130190A0E0B0E401C01D92A233B207E1F70E94CF
S11301A00A020C942E060C9400006150710920E0A0
S11301B030E00EC0DC01A20FB31F4C91FC01E60F2E
S11301C0F71F50815C9340832F5F3F4F615071094B
S11301D0261737077CF30895CF92DF92EF92FF92B0
S11301E00F931F93CF93DF938A016901C0E0D0E09E
S11301F011C07801EC0EFD1E2AE030E040E050E032
S11302000E94ED05605DF7016083622F732F842FD8
S1130210952F2196611571058105910551F706C049
S1130220F801EC0FFD1F80E380832196CC15DD05DA
S1130230BCF3BE01C8010E94D500F801EC0FFD1FFC
S11302401082CE01DF91CF911F910F91FF90EF901B
S1130250DF90CF9008958F929F92AF92BF92CF92EA
S1130260DF92EF92FF920F931F93CF93DF934B0193
S11302705C018A01E9010E9437036B01770FEE08E4
S1130280FF08C701B6010E946F039B01AC01C501C1
S1130290B4010E9458024B015C0120E030E0A80147
S11302A0C701B6010E94EC007C01209749F1F801D6
S11302B0E80FF91F8EE28083BE010D2E000C880B1F
S11302C0990B0E946F039B01AC0160E070E080E237
S11302D091E40E9468049B01AC01C501B4010E9431
S11302E0FB032FEFE21AF20A0E943703A8014E0D16
S11302F05F1D072E000C880B990B9E010E94EC00D9
S1130300DF91CF911F910F91FF90EF90DF90CF90ED
S1130310BF90AF909F908F900895E0E4F4E0208127
S11303202D7F2083208121602083BC0180E090E028
S11303300E946D0320E030E040E851E40E94FB039A
S11303409B01AC0160E074E284E79DE40E94C50275
S113035020E030E040E05FE30E9459020E943E0347
S1130360E0E2F8E0608771878681806C8683089577
S11303709091240895FFFCCF8093220808950F9351
S11303801F93CF93DF938C01C0E0D0E007C0F80146
S1130390EC0FFD1F80810E94B8012196F8010190A5
S11303A00020E9F73197E01BF10BCE17DF0778F354
S11303B08AE00E94B801DF91CF911F910F910895B7
S11303C09A0140E050E40E942B0180E090E40E94F6
S11303D0BF01089585E88093A000E0E0F6E081E0A5
S11303E08283808310926804089581E080930A06D2
S11303F00895809308060E94F50180910D0680FF00
S1130400FCCF609110067091110680E090E00E948C
S11304106D03089580E895E20E948D010E94EA012F
S1130420E0E4F4E080E8828387898860878BC1E018
S1130430D0E0C12CD12C760115C083E090E00E945D
S1130440F9010E943703072E000C880B990B0E94B8
S11304506F039B01AC01C701B6010E9459026B01F5
S11304607C012196C53F21E0D2073CF320E030E037
S11304704AEF53E4C701B6010E94C50222E638E9F7
S11304804DED5BE30E94FB032CE937E14CEA50E4B9
S11304900E94590242E050E00E94E0018FE798E395
S11304A021E0815090402040E1F700C00000BFCF20
S11304B05058BB27AA270E9470020C94C1030E94C3
S11304C0B30338F00E94BA0320F039F49F3F19F4C3
S11304D026F40C94B0030EF4E095E7FB0C94AA0305
S11304E0E92F0E94D20358F3BA17620773078407EF
S11304F0950720F079F4A6F50C94F4030EF4E09536
S11305000B2EBA2FA02D0B01B90190010C01CA01C9
S1130510A0011124FF27591B99F0593F50F4503E74
S113052068F11A16F040A22F232F342F4427585F66
S1130530F3CF469537952795A795F0405395C9F77E
S11305407EF41F16BA0B620B730B840BBAF0915036
S1130550A1F0FF0FBB1F661F771F881FC2F70EC0D5
S1130560BA0F621F731F841F48F4879577956795A8
S1130570B795F7959E3F08F0B0CF9395880F08F094
S11305809927EE0F9795879508950E94D9020C94A8
S1130590C1030E94BA0358F00E94B30340F029F447
S11305A05F3F29F00C94AA0351110C94F5030C94A9
S11305B0B0030E94D20368F39923B1F3552391F356
S11305C0951B550BBB27AA2762177307840738F0BE
S11305D09F5F5F4F220F331F441FAA1FA9F335D01B
S11305E00E2E3AF0E0E832D091505040E695001CCF
S11305F0CAF72BD0FE2F29D0660F771F881FBB1F89
S1130600261737074807AB07B0E809F0BB0B802D66
S1130610BF01FF2793585F4F3AF09E3F510578F092
S11306200C94AA030C94F5035F3FE4F3983ED4F3CF
S1130630869577956795B795F7959F5FC9F7880F66
S1130640911D9695879597F90895E1E0660F771FB8
S1130650881FBB1F621773078407BA0720F0621B49
S1130660730B840BBA0BEE1F88F7E09508950E9474
S11306703E036894B1110C94F50308950E94DA03C3
S113068088F09F5798F0B92F9927B751B0F0E1F04F
S1130690660F771F881F991F1AF0BA95C9F714C0FF
S11306A0B13091F00E94F403B1E008950C94F40386
S11306B0672F782F8827B85F39F0B93FCCF3869538
S11306C077956795B395D9F73EF490958095709595
S11306D061957F4F8F4F9F4F0895E89409C097FB12
S11306E03EF490958095709561957F4F8F4F9F4F05
S11306F09923A9F0F92F96E9BB279395F695879549
S113070077956795B795F111F8CFFAF4BB0F11F40B
S113071060FF1BC06F5F7F4F8F4F9F4F16C08823B2
S113072011F096E911C0772321F09EE8872F762FE8
S113073005C0662371F096E8862F70E060E02AF029
S11307409A95660F771F881FDAF7880F9695879515
S113075097F9089597F99F6780E870E060E008953D
S11307609FEF80EC089500240A94161617061806C5
S11307700906089500240A941216130614060506A1
S11307800895092E0394000C11F4882352F0BB0F32
S113079040F4BF2B11F460FF04C06F5F7F4F8F4F95
S11307A09F4F089557FD9058440F551F59F05F3FD0
S11307B071F04795880F97FB991F61F09F3F79F07F
S11307C087950895121613061406551FF2CF469501
S11307D0F1DF08C0161617061806991FF1CF869583
S11307E07105610508940895E894BB276627772767
S11307F0CB0197F908950E940E040C94C1030E9442
S1130800B30338F00E94BA0320F0952311F00C943E
S1130810AA030C94B00311240C94F5030E94D20390
S113082070F3959FC1F3950F50E0551F629FF0013F
S1130830729FBB27F00DB11D639FAA27F00DB11D58
S1130840AA1F649F6627B00DA11D661F829F2227E1
S1130850B00DA11D621F739FB00DA11D621F839F68
S1130860A00D611D221F749F3327A00D611D231F3E
S1130870849F600D211D822F762F6A2F11249F578C
S113088050409AF0F1F088234AF0EE0FFF1FBB1F8F
S1130890661F771F881F91505040A9F79E3F51054E
S11308A080F00C94AA030C94F5035F3FE4F3983EA4
S11308B0D4F3869577956795B795F795E7959F5FF8
S11308C0C1F7FE2B880F911D9695879597F908958A
S11308D0FA01EE0FFF1F309621053105A1F16115D4
S11308E0710561F48038BFE39B0749F1689490383F
S11308F0810561F08038BFEF9B0741F099234AF5E9
S1130900FF3FE1053105210519F1E8940894E795C5
S1130910D901AA2329F4AB2FBE2FF85FD0F310C05E
S1130920FF5F70F4A695E0F7F73950F019F0FF3A3D
S113093038F49F779F930DD00F9007FC905808953B
S113094046F00C94B00360E070E080E89FE3089503
S11309504FE79F775F934F933F932F930E946305D5
S11309602F913F914F915F910E94FB030C94C0041F
S113097029F416F00C94AA030C94F4030C94B00319
S11309800E94DA03A8F39638A0F707F80F92E894C8
S11309902BE33AEA48EB5FE70E9411040F920F92AF
S11309A00F924DB75EB70F920E94AB05E0E0F1E005
S11309B00E94F2044F915F91EF91FF91E595EE1F34
S11309C0FF1F49F0FE57E0684427EE0F441FFA95D5
S11309D0E1F74195550B0E9425050F9007FE0C94F5
S11309E019050895DF93CF931F930F93FF92EF920E
S11309F0DF927B018C01689406C0DA2EEF010E941D
S1130A000E04FE01E894A5912591359145915591E7
S1130A10A6F3EF010E947002FE019701A801DA9487
S1130A2069F7DF90EF90FF900F911F91CF91DF91C5
S1130A3008959B01AC0160E070E080E89FE30C94B2
S1130A40C5020C94AA030C94DF050E94DA03D8F3C0
S1130A509923C9F3940F511DA3F39150504094F07E
S1130A6059F0882332F0660F771F881F9150504049
S1130A70C1F79E3F51052CF7880F911D96958795D8
S1130A8097F908955F3FACF0983E9CF0BB2786959C
S1130A9077956795B79508F4B1609395C1F7BB0F47
S1130AA058F711F460FFE8CF6F5F7F4F8F4F9F4F70
S1130AB0E3CF0C94F50316F00C94DF050C94B0030B
S1130AC068940C94AA030E94DA03A8F39923C1F34F
S1130AD0AEF3DF93CF931F930F93FF92C92FDD27BC
S1130AE088232AF02197660F771F881FDAF720E002
S1130AF030E040E85FEB9FE3883920F0803E38F037
S1130B0021968F770E945902E8E2F1E004C00E9426
S1130B105902E5E5F1E00E94F2048B01BE01EC010B
S1130B20FB2E6F5771097595771F880B990B0E94DF
S1130B306F0328E132E741E35FE30E940E04AF2D27
S1130B409801AE01FF900F911F91CF91DF910E9408
S1130B5070020C94C103FA01DC01AA0FBB1F9B01B4
S1130B60AC01BF5728F4222733274427507820C0EC
S1130B70B75190F4AB2F0024469537952795011C67
S1130B80A395D2F3002071F0220F331F441FB395B5
S1130B90DAF30ED00C94580261307105A0E88A078C
S1130BA0B94630F49B01AC016627772788279078F3
S1130BB0309621F0208331834283538308959F3FED
S1130BC031F0915020F4879577956795B795880F04
S1130BD0911D9695879597F90895052E97FB1EF418
S1130BE000940E94040657FD07D00E940C0607FCDF
S1130BF003D04EF40C9404065095409530952195FD
S1130C003F4F4F4F5F4F0895909580957095619534
S1130C107F4F8F4F9F4F0895A1E21A2EAA1BBB1B33
S1130C20FD010DC0AA1FBB1FEE1FFF1FA217B307B4
S1130C30E407F50720F0A21BB30BE40BF50B661FCA
S1130C40771F881F991F1A9469F76095709580958E
S1130C5090959B01AC01BD01CF010895F894FFCF9D
S9030000FC
